{
  "_format": "hh-sol-artifact-1",
  "contractName": "RoboPunkNFT",
  "sourceName": "contracts/RoboPuncksNFT.sol",
  "abi": [
    {
      "inputs": [],
      "stateMutability": "payable",
      "type": "constructor"
    },
    {
      "anonymous": false,
      "inputs": [
        {
          "indexed": true,
          "internalType": "address",
          "name": "owner",
          "type": "address"
        },
        {
          "indexed": true,
          "internalType": "address",
          "name": "approved",
          "type": "address"
        },
        {
          "indexed": true,
          "internalType": "uint256",
          "name": "tokenId",
          "type": "uint256"
        }
      ],
      "name": "Approval",
      "type": "event"
    },
    {
      "anonymous": false,
      "inputs": [
        {
          "indexed": true,
          "internalType": "address",
          "name": "owner",
          "type": "address"
        },
        {
          "indexed": true,
          "internalType": "address",
          "name": "operator",
          "type": "address"
        },
        {
          "indexed": false,
          "internalType": "bool",
          "name": "approved",
          "type": "bool"
        }
      ],
      "name": "ApprovalForAll",
      "type": "event"
    },
    {
      "anonymous": false,
      "inputs": [
        {
          "indexed": true,
          "internalType": "address",
          "name": "previousOwner",
          "type": "address"
        },
        {
          "indexed": true,
          "internalType": "address",
          "name": "newOwner",
          "type": "address"
        }
      ],
      "name": "OwnershipTransferred",
      "type": "event"
    },
    {
      "anonymous": false,
      "inputs": [
        {
          "indexed": true,
          "internalType": "address",
          "name": "from",
          "type": "address"
        },
        {
          "indexed": true,
          "internalType": "address",
          "name": "to",
          "type": "address"
        },
        {
          "indexed": true,
          "internalType": "uint256",
          "name": "tokenId",
          "type": "uint256"
        }
      ],
      "name": "Transfer",
      "type": "event"
    },
    {
      "inputs": [
        {
          "internalType": "address",
          "name": "to",
          "type": "address"
        },
        {
          "internalType": "uint256",
          "name": "tokenId",
          "type": "uint256"
        }
      ],
      "name": "approve",
      "outputs": [],
      "stateMutability": "nonpayable",
      "type": "function"
    },
    {
      "inputs": [
        {
          "internalType": "address",
          "name": "owner",
          "type": "address"
        }
      ],
      "name": "balanceOf",
      "outputs": [
        {
          "internalType": "uint256",
          "name": "",
          "type": "uint256"
        }
      ],
      "stateMutability": "view",
      "type": "function"
    },
    {
      "inputs": [],
      "name": "checkContractBalance",
      "outputs": [
        {
          "internalType": "uint256",
          "name": "",
          "type": "uint256"
        }
      ],
      "stateMutability": "view",
      "type": "function"
    },
    {
      "inputs": [
        {
          "internalType": "uint256",
          "name": "tokenId",
          "type": "uint256"
        }
      ],
      "name": "getApproved",
      "outputs": [
        {
          "internalType": "address",
          "name": "",
          "type": "address"
        }
      ],
      "stateMutability": "view",
      "type": "function"
    },
    {
      "inputs": [
        {
          "internalType": "address",
          "name": "owner",
          "type": "address"
        },
        {
          "internalType": "address",
          "name": "operator",
          "type": "address"
        }
      ],
      "name": "isApprovedForAll",
      "outputs": [
        {
          "internalType": "bool",
          "name": "",
          "type": "bool"
        }
      ],
      "stateMutability": "view",
      "type": "function"
    },
    {
      "inputs": [],
      "name": "isPublicMintEnabled",
      "outputs": [
        {
          "internalType": "bool",
          "name": "",
          "type": "bool"
        }
      ],
      "stateMutability": "view",
      "type": "function"
    },
    {
      "inputs": [],
      "name": "maxPerWallet",
      "outputs": [
        {
          "internalType": "uint256",
          "name": "",
          "type": "uint256"
        }
      ],
      "stateMutability": "view",
      "type": "function"
    },
    {
      "inputs": [],
      "name": "maxSupply",
      "outputs": [
        {
          "internalType": "uint256",
          "name": "",
          "type": "uint256"
        }
      ],
      "stateMutability": "view",
      "type": "function"
    },
    {
      "inputs": [
        {
          "internalType": "uint256",
          "name": "quantity_",
          "type": "uint256"
        }
      ],
      "name": "mint",
      "outputs": [],
      "stateMutability": "payable",
      "type": "function"
    },
    {
      "inputs": [],
      "name": "mintPrice",
      "outputs": [
        {
          "internalType": "uint256",
          "name": "",
          "type": "uint256"
        }
      ],
      "stateMutability": "view",
      "type": "function"
    },
    {
      "inputs": [],
      "name": "name",
      "outputs": [
        {
          "internalType": "string",
          "name": "",
          "type": "string"
        }
      ],
      "stateMutability": "view",
      "type": "function"
    },
    {
      "inputs": [],
      "name": "owner",
      "outputs": [
        {
          "internalType": "address",
          "name": "",
          "type": "address"
        }
      ],
      "stateMutability": "view",
      "type": "function"
    },
    {
      "inputs": [
        {
          "internalType": "uint256",
          "name": "tokenId",
          "type": "uint256"
        }
      ],
      "name": "ownerOf",
      "outputs": [
        {
          "internalType": "address",
          "name": "",
          "type": "address"
        }
      ],
      "stateMutability": "view",
      "type": "function"
    },
    {
      "inputs": [],
      "name": "renounceOwnership",
      "outputs": [],
      "stateMutability": "nonpayable",
      "type": "function"
    },
    {
      "inputs": [
        {
          "internalType": "address",
          "name": "from",
          "type": "address"
        },
        {
          "internalType": "address",
          "name": "to",
          "type": "address"
        },
        {
          "internalType": "uint256",
          "name": "tokenId",
          "type": "uint256"
        }
      ],
      "name": "safeTransferFrom",
      "outputs": [],
      "stateMutability": "nonpayable",
      "type": "function"
    },
    {
      "inputs": [
        {
          "internalType": "address",
          "name": "from",
          "type": "address"
        },
        {
          "internalType": "address",
          "name": "to",
          "type": "address"
        },
        {
          "internalType": "uint256",
          "name": "tokenId",
          "type": "uint256"
        },
        {
          "internalType": "bytes",
          "name": "_data",
          "type": "bytes"
        }
      ],
      "name": "safeTransferFrom",
      "outputs": [],
      "stateMutability": "nonpayable",
      "type": "function"
    },
    {
      "inputs": [
        {
          "internalType": "address",
          "name": "operator",
          "type": "address"
        },
        {
          "internalType": "bool",
          "name": "approved",
          "type": "bool"
        }
      ],
      "name": "setApprovalForAll",
      "outputs": [],
      "stateMutability": "nonpayable",
      "type": "function"
    },
    {
      "inputs": [
        {
          "internalType": "string",
          "name": "baseTokenUri_",
          "type": "string"
        }
      ],
      "name": "setBaseTokenUri",
      "outputs": [],
      "stateMutability": "nonpayable",
      "type": "function"
    },
    {
      "inputs": [
        {
          "internalType": "bool",
          "name": "isPublicMintEnabled_",
          "type": "bool"
        }
      ],
      "name": "setISPublicMintEnabled",
      "outputs": [],
      "stateMutability": "nonpayable",
      "type": "function"
    },
    {
      "inputs": [
        {
          "internalType": "bytes4",
          "name": "interfaceId",
          "type": "bytes4"
        }
      ],
      "name": "supportsInterface",
      "outputs": [
        {
          "internalType": "bool",
          "name": "",
          "type": "bool"
        }
      ],
      "stateMutability": "view",
      "type": "function"
    },
    {
      "inputs": [],
      "name": "symbol",
      "outputs": [
        {
          "internalType": "string",
          "name": "",
          "type": "string"
        }
      ],
      "stateMutability": "view",
      "type": "function"
    },
    {
      "inputs": [
        {
          "internalType": "uint256",
          "name": "tokenId_",
          "type": "uint256"
        }
      ],
      "name": "tokenURI",
      "outputs": [
        {
          "internalType": "string",
          "name": "",
          "type": "string"
        }
      ],
      "stateMutability": "view",
      "type": "function"
    },
    {
      "inputs": [],
      "name": "totalSupply",
      "outputs": [
        {
          "internalType": "uint256",
          "name": "",
          "type": "uint256"
        }
      ],
      "stateMutability": "view",
      "type": "function"
    },
    {
      "inputs": [
        {
          "internalType": "address",
          "name": "from",
          "type": "address"
        },
        {
          "internalType": "address",
          "name": "to",
          "type": "address"
        },
        {
          "internalType": "uint256",
          "name": "tokenId",
          "type": "uint256"
        }
      ],
      "name": "transferFrom",
      "outputs": [],
      "stateMutability": "nonpayable",
      "type": "function"
    },
    {
      "inputs": [
        {
          "internalType": "address",
          "name": "newOwner",
          "type": "address"
        }
      ],
      "name": "transferOwnership",
      "outputs": [],
      "stateMutability": "nonpayable",
      "type": "function"
    },
    {
      "inputs": [
        {
          "internalType": "address",
          "name": "",
          "type": "address"
        }
      ],
      "name": "walletMints",
      "outputs": [
        {
          "internalType": "uint256",
          "name": "",
          "type": "uint256"
        }
      ],
      "stateMutability": "view",
      "type": "function"
    },
    {
      "inputs": [],
      "name": "withdraw",
      "outputs": [],
      "stateMutability": "nonpayable",
      "type": "function"
    },
    {
      "inputs": [],
      "name": "withdrawWallet",
      "outputs": [
        {
          "internalType": "address payable",
          "name": "",
          "type": "address"
        }
      ],
      "stateMutability": "view",
      "type": "function"
    }
  ],
  "bytecode": "0x60806040526040518060400160405280600981526020017f526f626f50756e6b7300000000000000000000000000000000000000000000008152506040518060400160405280600281526020017f5250000000000000000000000000000000000000000000000000000000000000815250816000908051906020019062000088929190620001bf565b508060019080519060200190620000a1929190620001bf565b505050620000c4620000b8620000f160201b60201c565b620000f960201b60201c565b66470de4df82000060078190555060006008819055506003600a819055506103e8600981905550620002d4565b600033905090565b6000600660009054906101000a900473ffffffffffffffffffffffffffffffffffffffff16905081600660006101000a81548173ffffffffffffffffffffffffffffffffffffffff021916908373ffffffffffffffffffffffffffffffffffffffff1602179055508173ffffffffffffffffffffffffffffffffffffffff168173ffffffffffffffffffffffffffffffffffffffff167f8be0079c531659141344cd1fd0a4f28419497f9722a3daafe3b4186f6b6457e060405160405180910390a35050565b828054620001cd906200026f565b90600052602060002090601f016020900481019282620001f157600085556200023d565b82601f106200020c57805160ff19168380011785556200023d565b828001600101855582156200023d579182015b828111156200023c5782518255916020019190600101906200021f565b5b5090506200024c919062000250565b5090565b5b808211156200026b57600081600090555060010162000251565b5090565b600060028204905060018216806200028857607f821691505b602082108114156200029f576200029e620002a5565b5b50919050565b7f4e487b7100000000000000000000000000000000000000000000000000000000600052602260045260246000fd5b6137e180620002e46000396000f3fe6080604052600436106101b75760003560e01c806370a08231116100ec578063a22cb4651161008a578063d5abeb0111610064578063d5abeb01146105d9578063e985e9c514610604578063f0293fd314610641578063f2fde38b1461067e576101b7565b8063a22cb4651461054a578063b88d4fde14610573578063c87b56dd1461059c576101b7565b80638da5cb5b116100c65780638da5cb5b146104af57806395652cfa146104da57806395d89b4114610503578063a0712d681461052e576101b7565b806370a0823114610430578063715018a61461046d57806385d178f414610484576101b7565b806323b872dd11610159578063453c231011610133578063453c23101461037257806350312c9e1461039d5780636352211e146103c85780636817c76c14610405576101b7565b806323b872dd146103095780633ccfd60b1461033257806342842e0e14610349576101b7565b8063081812fc11610195578063081812fc1461024f578063095ea7b31461028c57806318160ddd146102b55780631cdaea23146102e0576101b7565b80630116bc2d146101bc57806301ffc9a7146101e757806306fdde0314610224575b600080fd5b3480156101c857600080fd5b506101d16106a7565b6040516101de9190612aec565b60405180910390f35b3480156101f357600080fd5b5061020e600480360381019061020991906124e3565b6106ba565b60405161021b9190612aec565b60405180910390f35b34801561023057600080fd5b5061023961079c565b6040516102469190612b07565b60405180910390f35b34801561025b57600080fd5b506102766004803603810190610271919061257a565b61082e565b6040516102839190612a6a565b60405180910390f35b34801561029857600080fd5b506102b360048036038101906102ae919061247e565b6108b3565b005b3480156102c157600080fd5b506102ca6109cb565b6040516102d79190612dc9565b60405180910390f35b3480156102ec57600080fd5b50610307600480360381019061030291906124ba565b6109d1565b005b34801561031557600080fd5b50610330600480360381019061032b9190612378565b610a6a565b005b34801561033e57600080fd5b50610347610aca565b005b34801561035557600080fd5b50610370600480360381019061036b9190612378565b610c17565b005b34801561037e57600080fd5b50610387610c37565b6040516103949190612dc9565b60405180910390f35b3480156103a957600080fd5b506103b2610c3d565b6040516103bf9190612dc9565b60405180910390f35b3480156103d457600080fd5b506103ef60048036038101906103ea919061257a565b610c45565b6040516103fc9190612a6a565b60405180910390f35b34801561041157600080fd5b5061041a610cf7565b6040516104279190612dc9565b60405180910390f35b34801561043c57600080fd5b5061045760048036038101906104529190612313565b610cfd565b6040516104649190612dc9565b60405180910390f35b34801561047957600080fd5b50610482610db5565b005b34801561049057600080fd5b50610499610e3d565b6040516104a69190612a85565b60405180910390f35b3480156104bb57600080fd5b506104c4610e63565b6040516104d19190612a6a565b60405180910390f35b3480156104e657600080fd5b5061050160048036038101906104fc9190612535565b610e8d565b005b34801561050f57600080fd5b50610518610f1f565b6040516105259190612b07565b60405180910390f35b6105486004803603810190610543919061257a565b610fb1565b005b34801561055657600080fd5b50610571600480360381019061056c9190612442565b611188565b005b34801561057f57600080fd5b5061059a600480360381019061059591906123c7565b61119e565b005b3480156105a857600080fd5b506105c360048036038101906105be919061257a565b611200565b6040516105d09190612b07565b60405180910390f35b3480156105e557600080fd5b506105ee61127c565b6040516105fb9190612dc9565b60405180910390f35b34801561061057600080fd5b5061062b6004803603810190610626919061233c565b611282565b6040516106389190612aec565b60405180910390f35b34801561064d57600080fd5b5061066860048036038101906106639190612313565b611316565b6040516106759190612dc9565b60405180910390f35b34801561068a57600080fd5b506106a560048036038101906106a09190612313565b61132e565b005b600b60009054906101000a900460ff1681565b60007f80ac58cd000000000000000000000000000000000000000000000000000000007bffffffffffffffffffffffffffffffffffffffffffffffffffffffff1916827bffffffffffffffffffffffffffffffffffffffffffffffffffffffff1916148061078557507f5b5e139f000000000000000000000000000000000000000000000000000000007bffffffffffffffffffffffffffffffffffffffffffffffffffffffff1916827bffffffffffffffffffffffffffffffffffffffffffffffffffffffff1916145b80610795575061079482611426565b5b9050919050565b6060600080546107ab9061307a565b80601f01602080910402602001604051908101604052809291908181526020018280546107d79061307a565b80156108245780601f106107f957610100808354040283529160200191610824565b820191906000526020600020905b81548152906001019060200180831161080757829003601f168201915b5050505050905090565b600061083982611490565b610878576040517f08c379a000000000000000000000000000000000000000000000000000000000815260040161086f90612ce9565b60405180910390fd5b6004600083815260200190815260200160002060009054906101000a900473ffffffffffffffffffffffffffffffffffffffff169050919050565b60006108be82610c45565b90508073ffffffffffffffffffffffffffffffffffffffff168373ffffffffffffffffffffffffffffffffffffffff16141561092f576040517f08c379a000000000000000000000000000000000000000000000000000000000815260040161092690612d49565b60405180910390fd5b8073ffffffffffffffffffffffffffffffffffffffff1661094e6114fc565b73ffffffffffffffffffffffffffffffffffffffff16148061097d575061097c816109776114fc565b611282565b5b6109bc576040517f08c379a00000000000000000000000000000000000000000000000000000000081526004016109b390612c69565b60405180910390fd5b6109c68383611504565b505050565b60085481565b6109d96114fc565b73ffffffffffffffffffffffffffffffffffffffff166109f7610e63565b73ffffffffffffffffffffffffffffffffffffffff1614610a4d576040517f08c379a0000000000000000000000000000000000000000000000000000000008152600401610a4490612d29565b60405180910390fd5b80600b60006101000a81548160ff02191690831515021790555050565b610a7b610a756114fc565b826115bd565b610aba576040517f08c379a0000000000000000000000000000000000000000000000000000000008152600401610ab190612d69565b60405180910390fd5b610ac583838361169b565b505050565b610ad26114fc565b73ffffffffffffffffffffffffffffffffffffffff16610af0610e63565b73ffffffffffffffffffffffffffffffffffffffff1614610b46576040517f08c379a0000000000000000000000000000000000000000000000000000000008152600401610b3d90612d29565b60405180910390fd5b6000600d60009054906101000a900473ffffffffffffffffffffffffffffffffffffffff1673ffffffffffffffffffffffffffffffffffffffff1647604051610b8e90612a55565b60006040518083038185875af1925050503d8060008114610bcb576040519150601f19603f3d011682016040523d82523d6000602084013e610bd0565b606091505b5050905080610c14576040517f08c379a0000000000000000000000000000000000000000000000000000000008152600401610c0b90612da9565b60405180910390fd5b50565b610c328383836040518060200160405280600081525061119e565b505050565b600a5481565b600047905090565b6000806002600084815260200190815260200160002060009054906101000a900473ffffffffffffffffffffffffffffffffffffffff169050600073ffffffffffffffffffffffffffffffffffffffff168173ffffffffffffffffffffffffffffffffffffffff161415610cee576040517f08c379a0000000000000000000000000000000000000000000000000000000008152600401610ce590612ca9565b60405180910390fd5b80915050919050565b60075481565b60008073ffffffffffffffffffffffffffffffffffffffff168273ffffffffffffffffffffffffffffffffffffffff161415610d6e576040517f08c379a0000000000000000000000000000000000000000000000000000000008152600401610d6590612c89565b60405180910390fd5b600360008373ffffffffffffffffffffffffffffffffffffffff1673ffffffffffffffffffffffffffffffffffffffff168152602001908152602001600020549050919050565b610dbd6114fc565b73ffffffffffffffffffffffffffffffffffffffff16610ddb610e63565b73ffffffffffffffffffffffffffffffffffffffff1614610e31576040517f08c379a0000000000000000000000000000000000000000000000000000000008152600401610e2890612d29565b60405180910390fd5b610e3b6000611902565b565b600d60009054906101000a900473ffffffffffffffffffffffffffffffffffffffff1681565b6000600660009054906101000a900473ffffffffffffffffffffffffffffffffffffffff16905090565b610e956114fc565b73ffffffffffffffffffffffffffffffffffffffff16610eb3610e63565b73ffffffffffffffffffffffffffffffffffffffff1614610f09576040517f08c379a0000000000000000000000000000000000000000000000000000000008152600401610f0090612d29565b60405180910390fd5b8181600c9190610f1a929190612155565b505050565b606060018054610f2e9061307a565b80601f0160208091040260200160405190810160405280929190818152602001828054610f5a9061307a565b8015610fa75780601f10610f7c57610100808354040283529160200191610fa7565b820191906000526020600020905b815481529060010190602001808311610f8a57829003601f168201915b5050505050905090565b600b60009054906101000a900460ff16611000576040517f08c379a0000000000000000000000000000000000000000000000000000000008152600401610ff790612b49565b60405180910390fd5b6007548161100e9190612f24565b341461104f576040517f08c379a000000000000000000000000000000000000000000000000000000000815260040161104690612bc9565b60405180910390fd5b600954816008546110609190612e9d565b11156110a1576040517f08c379a000000000000000000000000000000000000000000000000000000000815260040161109890612c49565b60405180910390fd5b600a5481600e60003373ffffffffffffffffffffffffffffffffffffffff1673ffffffffffffffffffffffffffffffffffffffff168152602001908152602001600020546110ef9190612e9d565b1115611130576040517f08c379a000000000000000000000000000000000000000000000000000000000815260040161112790612d09565b60405180910390fd5b60005b81811015611184576000600160085461114c9190612e9d565b905060086000815480929190611161906130dd565b919050555061117033826119c8565b50808061117c906130dd565b915050611133565b5050565b61119a6111936114fc565b83836119e6565b5050565b6111af6111a96114fc565b836115bd565b6111ee576040517f08c379a00000000000000000000000000000000000000000000000000000000081526004016111e590612d69565b60405180910390fd5b6111fa84848484611b53565b50505050565b606061120b82611490565b61124a576040517f08c379a000000000000000000000000000000000000000000000000000000000815260040161124190612d89565b60405180910390fd5b600c61125583611baf565b604051602001611266929190612a26565b6040516020818303038152906040529050919050565b60095481565b6000600560008473ffffffffffffffffffffffffffffffffffffffff1673ffffffffffffffffffffffffffffffffffffffff16815260200190815260200160002060008373ffffffffffffffffffffffffffffffffffffffff1673ffffffffffffffffffffffffffffffffffffffff16815260200190815260200160002060009054906101000a900460ff16905092915050565b600e6020528060005260406000206000915090505481565b6113366114fc565b73ffffffffffffffffffffffffffffffffffffffff16611354610e63565b73ffffffffffffffffffffffffffffffffffffffff16146113aa576040517f08c379a00000000000000000000000000000000000000000000000000000000081526004016113a190612d29565b60405180910390fd5b600073ffffffffffffffffffffffffffffffffffffffff168173ffffffffffffffffffffffffffffffffffffffff16141561141a576040517f08c379a000000000000000000000000000000000000000000000000000000000815260040161141190612b69565b60405180910390fd5b61142381611902565b50565b60007f01ffc9a7000000000000000000000000000000000000000000000000000000007bffffffffffffffffffffffffffffffffffffffffffffffffffffffff1916827bffffffffffffffffffffffffffffffffffffffffffffffffffffffff1916149050919050565b60008073ffffffffffffffffffffffffffffffffffffffff166002600084815260200190815260200160002060009054906101000a900473ffffffffffffffffffffffffffffffffffffffff1673ffffffffffffffffffffffffffffffffffffffff1614159050919050565b600033905090565b816004600083815260200190815260200160002060006101000a81548173ffffffffffffffffffffffffffffffffffffffff021916908373ffffffffffffffffffffffffffffffffffffffff160217905550808273ffffffffffffffffffffffffffffffffffffffff1661157783610c45565b73ffffffffffffffffffffffffffffffffffffffff167f8c5be1e5ebec7d5bd14f71427d1e84f3dd0314c0f7b2291e5b200ac8c7c3b92560405160405180910390a45050565b60006115c882611490565b611607576040517f08c379a00000000000000000000000000000000000000000000000000000000081526004016115fe90612c29565b60405180910390fd5b600061161283610c45565b90508073ffffffffffffffffffffffffffffffffffffffff168473ffffffffffffffffffffffffffffffffffffffff16148061165457506116538185611282565b5b8061169257508373ffffffffffffffffffffffffffffffffffffffff1661167a8461082e565b73ffffffffffffffffffffffffffffffffffffffff16145b91505092915050565b8273ffffffffffffffffffffffffffffffffffffffff166116bb82610c45565b73ffffffffffffffffffffffffffffffffffffffff1614611711576040517f08c379a000000000000000000000000000000000000000000000000000000000815260040161170890612b89565b60405180910390fd5b600073ffffffffffffffffffffffffffffffffffffffff168273ffffffffffffffffffffffffffffffffffffffff161415611781576040517f08c379a000000000000000000000000000000000000000000000000000000000815260040161177890612be9565b60405180910390fd5b61178c838383611d5c565b611797600082611504565b6001600360008573ffffffffffffffffffffffffffffffffffffffff1673ffffffffffffffffffffffffffffffffffffffff16815260200190815260200160002060008282546117e79190612f7e565b925050819055506001600360008473ffffffffffffffffffffffffffffffffffffffff1673ffffffffffffffffffffffffffffffffffffffff168152602001908152602001600020600082825461183e9190612e9d565b92505081905550816002600083815260200190815260200160002060006101000a81548173ffffffffffffffffffffffffffffffffffffffff021916908373ffffffffffffffffffffffffffffffffffffffff160217905550808273ffffffffffffffffffffffffffffffffffffffff168473ffffffffffffffffffffffffffffffffffffffff167fddf252ad1be2c89b69c2b068fc378daa952ba7f163c4a11628f55a4df523b3ef60405160405180910390a46118fd838383611d61565b505050565b6000600660009054906101000a900473ffffffffffffffffffffffffffffffffffffffff16905081600660006101000a81548173ffffffffffffffffffffffffffffffffffffffff021916908373ffffffffffffffffffffffffffffffffffffffff1602179055508173ffffffffffffffffffffffffffffffffffffffff168173ffffffffffffffffffffffffffffffffffffffff167f8be0079c531659141344cd1fd0a4f28419497f9722a3daafe3b4186f6b6457e060405160405180910390a35050565b6119e2828260405180602001604052806000815250611d66565b5050565b8173ffffffffffffffffffffffffffffffffffffffff168373ffffffffffffffffffffffffffffffffffffffff161415611a55576040517f08c379a0000000000000000000000000000000000000000000000000000000008152600401611a4c90612c09565b60405180910390fd5b80600560008573ffffffffffffffffffffffffffffffffffffffff1673ffffffffffffffffffffffffffffffffffffffff16815260200190815260200160002060008473ffffffffffffffffffffffffffffffffffffffff1673ffffffffffffffffffffffffffffffffffffffff16815260200190815260200160002060006101000a81548160ff0219169083151502179055508173ffffffffffffffffffffffffffffffffffffffff168373ffffffffffffffffffffffffffffffffffffffff167f17307eab39ab6107e8899845ad3d59bd9653f200f220920489ca2b5937696c3183604051611b469190612aec565b60405180910390a3505050565b611b5e84848461169b565b611b6a84848484611dc1565b611ba9576040517f08c379a0000000000000000000000000000000000000000000000000000000008152600401611ba090612b29565b60405180910390fd5b50505050565b60606000821415611bf7576040518060400160405280600181526020017f30000000000000000000000000000000000000000000000000000000000000008152509050611d57565b600082905060005b60008214611c29578080611c12906130dd565b915050600a82611c229190612ef3565b9150611bff565b60008167ffffffffffffffff811115611c6b577f4e487b7100000000000000000000000000000000000000000000000000000000600052604160045260246000fd5b6040519080825280601f01601f191660200182016040528015611c9d5781602001600182028036833780820191505090505b5090505b60008514611d5057600182611cb69190612f7e565b9150600a85611cc59190613126565b6030611cd19190612e9d565b60f81b818381518110611d0d577f4e487b7100000000000000000000000000000000000000000000000000000000600052603260045260246000fd5b60200101907effffffffffffffffffffffffffffffffffffffffffffffffffffffffffffff1916908160001a905350600a85611d499190612ef3565b9450611ca1565b8093505050505b919050565b505050565b505050565b611d708383611f58565b611d7d6000848484611dc1565b611dbc576040517f08c379a0000000000000000000000000000000000000000000000000000000008152600401611db390612b29565b60405180910390fd5b505050565b6000611de28473ffffffffffffffffffffffffffffffffffffffff16612132565b15611f4b578373ffffffffffffffffffffffffffffffffffffffff1663150b7a02611e0b6114fc565b8786866040518563ffffffff1660e01b8152600401611e2d9493929190612aa0565b602060405180830381600087803b158015611e4757600080fd5b505af1925050508015611e7857506040513d601f19601f82011682018060405250810190611e75919061250c565b60015b611efb573d8060008114611ea8576040519150601f19603f3d011682016040523d82523d6000602084013e611ead565b606091505b50600081511415611ef3576040517f08c379a0000000000000000000000000000000000000000000000000000000008152600401611eea90612b29565b60405180910390fd5b805181602001fd5b63150b7a0260e01b7bffffffffffffffffffffffffffffffffffffffffffffffffffffffff1916817bffffffffffffffffffffffffffffffffffffffffffffffffffffffff191614915050611f50565b600190505b949350505050565b600073ffffffffffffffffffffffffffffffffffffffff168273ffffffffffffffffffffffffffffffffffffffff161415611fc8576040517f08c379a0000000000000000000000000000000000000000000000000000000008152600401611fbf90612cc9565b60405180910390fd5b611fd181611490565b15612011576040517f08c379a000000000000000000000000000000000000000000000000000000000815260040161200890612ba9565b60405180910390fd5b61201d60008383611d5c565b6001600360008473ffffffffffffffffffffffffffffffffffffffff1673ffffffffffffffffffffffffffffffffffffffff168152602001908152602001600020600082825461206d9190612e9d565b92505081905550816002600083815260200190815260200160002060006101000a81548173ffffffffffffffffffffffffffffffffffffffff021916908373ffffffffffffffffffffffffffffffffffffffff160217905550808273ffffffffffffffffffffffffffffffffffffffff16600073ffffffffffffffffffffffffffffffffffffffff167fddf252ad1be2c89b69c2b068fc378daa952ba7f163c4a11628f55a4df523b3ef60405160405180910390a461212e60008383611d61565b5050565b6000808273ffffffffffffffffffffffffffffffffffffffff163b119050919050565b8280546121619061307a565b90600052602060002090601f01602090048101928261218357600085556121ca565b82601f1061219c57803560ff19168380011785556121ca565b828001600101855582156121ca579182015b828111156121c95782358255916020019190600101906121ae565b5b5090506121d791906121db565b5090565b5b808211156121f45760008160009055506001016121dc565b5090565b600061220b61220684612e09565b612de4565b90508281526020810184848401111561222357600080fd5b61222e848285613038565b509392505050565b6000813590506122458161374f565b92915050565b60008135905061225a81613766565b92915050565b60008135905061226f8161377d565b92915050565b6000815190506122848161377d565b92915050565b600082601f83011261229b57600080fd5b81356122ab8482602086016121f8565b91505092915050565b60008083601f8401126122c657600080fd5b8235905067ffffffffffffffff8111156122df57600080fd5b6020830191508360018202830111156122f757600080fd5b9250929050565b60008135905061230d81613794565b92915050565b60006020828403121561232557600080fd5b600061233384828501612236565b91505092915050565b6000806040838503121561234f57600080fd5b600061235d85828601612236565b925050602061236e85828601612236565b9150509250929050565b60008060006060848603121561238d57600080fd5b600061239b86828701612236565b93505060206123ac86828701612236565b92505060406123bd868287016122fe565b9150509250925092565b600080600080608085870312156123dd57600080fd5b60006123eb87828801612236565b94505060206123fc87828801612236565b935050604061240d878288016122fe565b925050606085013567ffffffffffffffff81111561242a57600080fd5b6124368782880161228a565b91505092959194509250565b6000806040838503121561245557600080fd5b600061246385828601612236565b92505060206124748582860161224b565b9150509250929050565b6000806040838503121561249157600080fd5b600061249f85828601612236565b92505060206124b0858286016122fe565b9150509250929050565b6000602082840312156124cc57600080fd5b60006124da8482850161224b565b91505092915050565b6000602082840312156124f557600080fd5b600061250384828501612260565b91505092915050565b60006020828403121561251e57600080fd5b600061252c84828501612275565b91505092915050565b6000806020838503121561254857600080fd5b600083013567ffffffffffffffff81111561256257600080fd5b61256e858286016122b4565b92509250509250929050565b60006020828403121561258c57600080fd5b600061259a848285016122fe565b91505092915050565b6125ac81612fc4565b82525050565b6125bb81612fb2565b82525050565b6125ca81612fd6565b82525050565b60006125db82612e4f565b6125e58185612e65565b93506125f5818560208601613047565b6125fe81613213565b840191505092915050565b600061261482612e5a565b61261e8185612e81565b935061262e818560208601613047565b61263781613213565b840191505092915050565b600061264d82612e5a565b6126578185612e92565b9350612667818560208601613047565b80840191505092915050565b600081546126808161307a565b61268a8186612e92565b945060018216600081146126a557600181146126b6576126e9565b60ff198316865281860193506126e9565b6126bf85612e3a565b60005b838110156126e1578154818901526001820191506020810190506126c2565b838801955050505b50505092915050565b60006126ff603283612e81565b915061270a82613224565b604082019050919050565b6000612722601383612e81565b915061272d82613273565b602082019050919050565b6000612745602683612e81565b91506127508261329c565b604082019050919050565b6000612768602583612e81565b9150612773826132eb565b604082019050919050565b600061278b601c83612e81565b91506127968261333a565b602082019050919050565b60006127ae601083612e81565b91506127b982613363565b602082019050919050565b60006127d1602483612e81565b91506127dc8261338c565b604082019050919050565b60006127f4601983612e81565b91506127ff826133db565b602082019050919050565b6000612817602c83612e81565b915061282282613404565b604082019050919050565b600061283a600883612e81565b915061284582613453565b602082019050919050565b600061285d603883612e81565b91506128688261347c565b604082019050919050565b6000612880602a83612e81565b915061288b826134cb565b604082019050919050565b60006128a3602983612e81565b91506128ae8261351a565b604082019050919050565b60006128c6602083612e81565b91506128d182613569565b602082019050919050565b60006128e9602c83612e81565b91506128f482613592565b604082019050919050565b600061290c600583612e92565b9150612917826135e1565b600582019050919050565b600061292f601183612e81565b915061293a8261360a565b602082019050919050565b6000612952602083612e81565b915061295d82613633565b602082019050919050565b6000612975602183612e81565b91506129808261365c565b604082019050919050565b6000612998600083612e76565b91506129a3826136ab565b600082019050919050565b60006129bb603183612e81565b91506129c6826136ae565b604082019050919050565b60006129de601583612e81565b91506129e9826136fd565b602082019050919050565b6000612a01600f83612e81565b9150612a0c82613726565b602082019050919050565b612a208161302e565b82525050565b6000612a328285612673565b9150612a3e8284612642565b9150612a49826128ff565b91508190509392505050565b6000612a608261298b565b9150819050919050565b6000602082019050612a7f60008301846125b2565b92915050565b6000602082019050612a9a60008301846125a3565b92915050565b6000608082019050612ab560008301876125b2565b612ac260208301866125b2565b612acf6040830185612a17565b8181036060830152612ae181846125d0565b905095945050505050565b6000602082019050612b0160008301846125c1565b92915050565b60006020820190508181036000830152612b218184612609565b905092915050565b60006020820190508181036000830152612b42816126f2565b9050919050565b60006020820190508181036000830152612b6281612715565b9050919050565b60006020820190508181036000830152612b8281612738565b9050919050565b60006020820190508181036000830152612ba28161275b565b9050919050565b60006020820190508181036000830152612bc28161277e565b9050919050565b60006020820190508181036000830152612be2816127a1565b9050919050565b60006020820190508181036000830152612c02816127c4565b9050919050565b60006020820190508181036000830152612c22816127e7565b9050919050565b60006020820190508181036000830152612c428161280a565b9050919050565b60006020820190508181036000830152612c628161282d565b9050919050565b60006020820190508181036000830152612c8281612850565b9050919050565b60006020820190508181036000830152612ca281612873565b9050919050565b60006020820190508181036000830152612cc281612896565b9050919050565b60006020820190508181036000830152612ce2816128b9565b9050919050565b60006020820190508181036000830152612d02816128dc565b9050919050565b60006020820190508181036000830152612d2281612922565b9050919050565b60006020820190508181036000830152612d4281612945565b9050919050565b60006020820190508181036000830152612d6281612968565b9050919050565b60006020820190508181036000830152612d82816129ae565b9050919050565b60006020820190508181036000830152612da2816129d1565b9050919050565b60006020820190508181036000830152612dc2816129f4565b9050919050565b6000602082019050612dde6000830184612a17565b92915050565b6000612dee612dff565b9050612dfa82826130ac565b919050565b6000604051905090565b600067ffffffffffffffff821115612e2457612e236131e4565b5b612e2d82613213565b9050602081019050919050565b60008190508160005260206000209050919050565b600081519050919050565b600081519050919050565b600082825260208201905092915050565b600081905092915050565b600082825260208201905092915050565b600081905092915050565b6000612ea88261302e565b9150612eb38361302e565b9250827fffffffffffffffffffffffffffffffffffffffffffffffffffffffffffffffff03821115612ee857612ee7613157565b5b828201905092915050565b6000612efe8261302e565b9150612f098361302e565b925082612f1957612f18613186565b5b828204905092915050565b6000612f2f8261302e565b9150612f3a8361302e565b9250817fffffffffffffffffffffffffffffffffffffffffffffffffffffffffffffffff0483118215151615612f7357612f72613157565b5b828202905092915050565b6000612f898261302e565b9150612f948361302e565b925082821015612fa757612fa6613157565b5b828203905092915050565b6000612fbd8261300e565b9050919050565b6000612fcf8261300e565b9050919050565b60008115159050919050565b60007fffffffff0000000000000000000000000000000000000000000000000000000082169050919050565b600073ffffffffffffffffffffffffffffffffffffffff82169050919050565b6000819050919050565b82818337600083830152505050565b60005b8381101561306557808201518184015260208101905061304a565b83811115613074576000848401525b50505050565b6000600282049050600182168061309257607f821691505b602082108114156130a6576130a56131b5565b5b50919050565b6130b582613213565b810181811067ffffffffffffffff821117156130d4576130d36131e4565b5b80604052505050565b60006130e88261302e565b91507fffffffffffffffffffffffffffffffffffffffffffffffffffffffffffffffff82141561311b5761311a613157565b5b600182019050919050565b60006131318261302e565b915061313c8361302e565b92508261314c5761314b613186565b5b828206905092915050565b7f4e487b7100000000000000000000000000000000000000000000000000000000600052601160045260246000fd5b7f4e487b7100000000000000000000000000000000000000000000000000000000600052601260045260246000fd5b7f4e487b7100000000000000000000000000000000000000000000000000000000600052602260045260246000fd5b7f4e487b7100000000000000000000000000000000000000000000000000000000600052604160045260246000fd5b6000601f19601f8301169050919050565b7f4552433732313a207472616e7366657220746f206e6f6e20455243373231526560008201527f63656976657220696d706c656d656e7465720000000000000000000000000000602082015250565b7f6d696e74696e67206e6f7420656e61626c656400000000000000000000000000600082015250565b7f4f776e61626c653a206e6577206f776e657220697320746865207a65726f206160008201527f6464726573730000000000000000000000000000000000000000000000000000602082015250565b7f4552433732313a207472616e736665722066726f6d20696e636f72726563742060008201527f6f776e6572000000000000000000000000000000000000000000000000000000602082015250565b7f4552433732313a20746f6b656e20616c7265616479206d696e74656400000000600082015250565b7f57726f6e67206d696e742056616c756500000000000000000000000000000000600082015250565b7f4552433732313a207472616e7366657220746f20746865207a65726f2061646460008201527f7265737300000000000000000000000000000000000000000000000000000000602082015250565b7f4552433732313a20617070726f766520746f2063616c6c657200000000000000600082015250565b7f4552433732313a206f70657261746f7220717565727920666f72206e6f6e657860008201527f697374656e7420746f6b656e0000000000000000000000000000000000000000602082015250565b7f736f6c64206f7574000000000000000000000000000000000000000000000000600082015250565b7f4552433732313a20617070726f76652063616c6c6572206973206e6f74206f7760008201527f6e6572206e6f7220617070726f76656420666f7220616c6c0000000000000000602082015250565b7f4552433732313a2062616c616e636520717565727920666f7220746865207a6560008201527f726f206164647265737300000000000000000000000000000000000000000000602082015250565b7f4552433732313a206f776e657220717565727920666f72206e6f6e657869737460008201527f656e7420746f6b656e0000000000000000000000000000000000000000000000602082015250565b7f4552433732313a206d696e7420746f20746865207a65726f2061646472657373600082015250565b7f4552433732313a20617070726f76656420717565727920666f72206e6f6e657860008201527f697374656e7420746f6b656e0000000000000000000000000000000000000000602082015250565b7f2e6a736f6e000000000000000000000000000000000000000000000000000000600082015250565b7f657863656564206d61782077616c6c6574000000000000000000000000000000600082015250565b7f4f776e61626c653a2063616c6c6572206973206e6f7420746865206f776e6572600082015250565b7f4552433732313a20617070726f76616c20746f2063757272656e74206f776e6560008201527f7200000000000000000000000000000000000000000000000000000000000000602082015250565b50565b7f4552433732313a207472616e736665722063616c6c6572206973206e6f74206f60008201527f776e6572206e6f7220617070726f766564000000000000000000000000000000602082015250565b7f546f6b656e20646f6573206e6f74206578697374210000000000000000000000600082015250565b7f7769746864726177206661696c65640000000000000000000000000000000000600082015250565b61375881612fb2565b811461376357600080fd5b50565b61376f81612fd6565b811461377a57600080fd5b50565b61378681612fe2565b811461379157600080fd5b50565b61379d8161302e565b81146137a857600080fd5b5056fea26469706673582212207357e634dd3a74305a2015da8573b68269fce11529524339355cd9fede275cb264736f6c63430008040033",
  "linkReferences": {},
  "deployedLinkReferences": {}
}